{
  "_format": "hh-sol-artifact-1",
  "contractName": "TestMint",
  "sourceName": "contracts/TestShit.sol",
  "abi": [
    {
      "inputs": [],
      "stateMutability": "nonpayable",
      "type": "constructor"
    },
    {
      "anonymous": false,
      "inputs": [
        {
          "indexed": true,
          "internalType": "address",
          "name": "owner",
          "type": "address"
        },
        {
          "indexed": true,
          "internalType": "address",
          "name": "approved",
          "type": "address"
        },
        {
          "indexed": true,
          "internalType": "uint256",
          "name": "tokenId",
          "type": "uint256"
        }
      ],
      "name": "Approval",
      "type": "event"
    },
    {
      "anonymous": false,
      "inputs": [
        {
          "indexed": true,
          "internalType": "address",
          "name": "owner",
          "type": "address"
        },
        {
          "indexed": true,
          "internalType": "address",
          "name": "operator",
          "type": "address"
        },
        {
          "indexed": false,
          "internalType": "bool",
          "name": "approved",
          "type": "bool"
        }
      ],
      "name": "ApprovalForAll",
      "type": "event"
    },
    {
      "anonymous": false,
      "inputs": [
        {
          "indexed": true,
          "internalType": "address",
          "name": "previousOwner",
          "type": "address"
        },
        {
          "indexed": true,
          "internalType": "address",
          "name": "newOwner",
          "type": "address"
        }
      ],
      "name": "OwnershipTransferred",
      "type": "event"
    },
    {
      "anonymous": false,
      "inputs": [
        {
          "indexed": true,
          "internalType": "address",
          "name": "from",
          "type": "address"
        },
        {
          "indexed": true,
          "internalType": "address",
          "name": "to",
          "type": "address"
        },
        {
          "indexed": true,
          "internalType": "uint256",
          "name": "tokenId",
          "type": "uint256"
        }
      ],
      "name": "Transfer",
      "type": "event"
    },
    {
      "inputs": [],
      "name": "_maxPublicCharacters",
      "outputs": [
        {
          "internalType": "uint256",
          "name": "",
          "type": "uint256"
        }
      ],
      "stateMutability": "view",
      "type": "function"
    },
    {
      "inputs": [],
      "name": "_mintPricePublic",
      "outputs": [
        {
          "internalType": "uint256",
          "name": "",
          "type": "uint256"
        }
      ],
      "stateMutability": "view",
      "type": "function"
    },
    {
      "inputs": [],
      "name": "_privateCount",
      "outputs": [
        {
          "internalType": "uint256",
          "name": "_value",
          "type": "uint256"
        }
      ],
      "stateMutability": "view",
      "type": "function"
    },
    {
      "inputs": [],
      "name": "_publicCount",
      "outputs": [
        {
          "internalType": "uint256",
          "name": "_value",
          "type": "uint256"
        }
      ],
      "stateMutability": "view",
      "type": "function"
    },
    {
      "inputs": [],
      "name": "_saleActive",
      "outputs": [
        {
          "internalType": "bool",
          "name": "",
          "type": "bool"
        }
      ],
      "stateMutability": "view",
      "type": "function"
    },
    {
      "inputs": [],
      "name": "_tokenUriBase",
      "outputs": [
        {
          "internalType": "string",
          "name": "",
          "type": "string"
        }
      ],
      "stateMutability": "view",
      "type": "function"
    },
    {
      "inputs": [
        {
          "internalType": "address",
          "name": "to",
          "type": "address"
        },
        {
          "internalType": "uint256",
          "name": "tokenId",
          "type": "uint256"
        }
      ],
      "name": "approve",
      "outputs": [],
      "stateMutability": "nonpayable",
      "type": "function"
    },
    {
      "inputs": [
        {
          "internalType": "address",
          "name": "owner",
          "type": "address"
        }
      ],
      "name": "balanceOf",
      "outputs": [
        {
          "internalType": "uint256",
          "name": "",
          "type": "uint256"
        }
      ],
      "stateMutability": "view",
      "type": "function"
    },
    {
      "inputs": [
        {
          "internalType": "uint256",
          "name": "price",
          "type": "uint256"
        }
      ],
      "name": "changeMintPrice",
      "outputs": [],
      "stateMutability": "nonpayable",
      "type": "function"
    },
    {
      "inputs": [
        {
          "internalType": "uint256",
          "name": "tokenId",
          "type": "uint256"
        }
      ],
      "name": "getApproved",
      "outputs": [
        {
          "internalType": "address",
          "name": "",
          "type": "address"
        }
      ],
      "stateMutability": "view",
      "type": "function"
    },
    {
      "inputs": [],
      "name": "getBaseURI",
      "outputs": [
        {
          "internalType": "string",
          "name": "",
          "type": "string"
        }
      ],
      "stateMutability": "view",
      "type": "function"
    },
    {
      "inputs": [
        {
          "internalType": "address",
          "name": "owner",
          "type": "address"
        },
        {
          "internalType": "address",
          "name": "operator",
          "type": "address"
        }
      ],
      "name": "isApprovedForAll",
      "outputs": [
        {
          "internalType": "bool",
          "name": "",
          "type": "bool"
        }
      ],
      "stateMutability": "view",
      "type": "function"
    },
    {
      "inputs": [],
      "name": "mint",
      "outputs": [],
      "stateMutability": "payable",
      "type": "function"
    },
    {
      "inputs": [],
      "name": "name",
      "outputs": [
        {
          "internalType": "string",
          "name": "",
          "type": "string"
        }
      ],
      "stateMutability": "view",
      "type": "function"
    },
    {
      "inputs": [],
      "name": "owner",
      "outputs": [
        {
          "internalType": "address",
          "name": "",
          "type": "address"
        }
      ],
      "stateMutability": "view",
      "type": "function"
    },
    {
      "inputs": [
        {
          "internalType": "uint256",
          "name": "tokenId",
          "type": "uint256"
        }
      ],
      "name": "ownerOf",
      "outputs": [
        {
          "internalType": "address",
          "name": "",
          "type": "address"
        }
      ],
      "stateMutability": "view",
      "type": "function"
    },
    {
      "inputs": [],
      "name": "renounceOwnership",
      "outputs": [],
      "stateMutability": "nonpayable",
      "type": "function"
    },
    {
      "inputs": [
        {
          "internalType": "address",
          "name": "from",
          "type": "address"
        },
        {
          "internalType": "address",
          "name": "to",
          "type": "address"
        },
        {
          "internalType": "uint256",
          "name": "tokenId",
          "type": "uint256"
        }
      ],
      "name": "safeTransferFrom",
      "outputs": [],
      "stateMutability": "nonpayable",
      "type": "function"
    },
    {
      "inputs": [
        {
          "internalType": "address",
          "name": "from",
          "type": "address"
        },
        {
          "internalType": "address",
          "name": "to",
          "type": "address"
        },
        {
          "internalType": "uint256",
          "name": "tokenId",
          "type": "uint256"
        },
        {
          "internalType": "bytes",
          "name": "_data",
          "type": "bytes"
        }
      ],
      "name": "safeTransferFrom",
      "outputs": [],
      "stateMutability": "nonpayable",
      "type": "function"
    },
    {
      "inputs": [
        {
          "internalType": "address",
          "name": "operator",
          "type": "address"
        },
        {
          "internalType": "bool",
          "name": "approved",
          "type": "bool"
        }
      ],
      "name": "setApprovalForAll",
      "outputs": [],
      "stateMutability": "nonpayable",
      "type": "function"
    },
    {
      "inputs": [
        {
          "internalType": "string",
          "name": "baseURI",
          "type": "string"
        }
      ],
      "name": "setBaseURI",
      "outputs": [],
      "stateMutability": "nonpayable",
      "type": "function"
    },
    {
      "inputs": [
        {
          "internalType": "uint256",
          "name": "newPasses",
          "type": "uint256"
        }
      ],
      "name": "setMaxPasses",
      "outputs": [],
      "stateMutability": "nonpayable",
      "type": "function"
    },
    {
      "inputs": [
        {
          "internalType": "bool",
          "name": "saleActive",
          "type": "bool"
        }
      ],
      "name": "setSale",
      "outputs": [],
      "stateMutability": "nonpayable",
      "type": "function"
    },
    {
      "inputs": [
        {
          "internalType": "bytes4",
          "name": "interfaceId",
          "type": "bytes4"
        }
      ],
      "name": "supportsInterface",
      "outputs": [
        {
          "internalType": "bool",
          "name": "",
          "type": "bool"
        }
      ],
      "stateMutability": "view",
      "type": "function"
    },
    {
      "inputs": [],
      "name": "symbol",
      "outputs": [
        {
          "internalType": "string",
          "name": "",
          "type": "string"
        }
      ],
      "stateMutability": "view",
      "type": "function"
    },
    {
      "inputs": [
        {
          "internalType": "uint256",
          "name": "tokenId",
          "type": "uint256"
        }
      ],
      "name": "tokenURI",
      "outputs": [
        {
          "internalType": "string",
          "name": "",
          "type": "string"
        }
      ],
      "stateMutability": "view",
      "type": "function"
    },
    {
      "inputs": [
        {
          "internalType": "address",
          "name": "from",
          "type": "address"
        },
        {
          "internalType": "address",
          "name": "to",
          "type": "address"
        },
        {
          "internalType": "uint256",
          "name": "tokenId",
          "type": "uint256"
        }
      ],
      "name": "transferFrom",
      "outputs": [],
      "stateMutability": "nonpayable",
      "type": "function"
    },
    {
      "inputs": [
        {
          "internalType": "address",
          "name": "newOwner",
          "type": "address"
        }
      ],
      "name": "transferOwnership",
      "outputs": [],
      "stateMutability": "nonpayable",
      "type": "function"
    },
    {
      "inputs": [],
      "name": "withdraw",
      "outputs": [],
      "stateMutability": "nonpayable",
      "type": "function"
    }
  ],
  "bytecode": "0x60806040526000600c556101f4600d553480156200001c57600080fd5b506040518060400160405280600c81526020017f546573742050726f6a65637400000000000000000000000000000000000000008152506040518060400160405280600481526020017f54455354000000000000000000000000000000000000000000000000000000008152508160009080519060200190620000a192919062000221565b508060019080519060200190620000ba92919062000221565b505050620000dd620000d16200015360201b60201c565b6200015b60201b60201c565b60016007819055506000600b60006101000a81548160ff0219169083151502179055506000600b60016101000a81548160ff02191690831515021790555060405180608001604052806042815260200162003b2d60429139600a90805190602001906200014c92919062000221565b5062000336565b600033905090565b6000600660009054906101000a900473ffffffffffffffffffffffffffffffffffffffff16905081600660006101000a81548173ffffffffffffffffffffffffffffffffffffffff021916908373ffffffffffffffffffffffffffffffffffffffff1602179055508173ffffffffffffffffffffffffffffffffffffffff168173ffffffffffffffffffffffffffffffffffffffff167f8be0079c531659141344cd1fd0a4f28419497f9722a3daafe3b4186f6b6457e060405160405180910390a35050565b8280546200022f90620002d1565b90600052602060002090601f0160209004810192826200025357600085556200029f565b82601f106200026e57805160ff19168380011785556200029f565b828001600101855582156200029f579182015b828111156200029e57825182559160200191906001019062000281565b5b509050620002ae9190620002b2565b5090565b5b80821115620002cd576000816000905550600101620002b3565b5090565b60006002820490506001821680620002ea57607f821691505b6020821081141562000301576200030062000307565b5b50919050565b7f4e487b7100000000000000000000000000000000000000000000000000000000600052602260045260246000fd5b6137e780620003466000396000f3fe6080604052600436106101c25760003560e01c806355f804b3116100f757806395d89b4111610095578063e18e22ed11610064578063e18e22ed146105f9578063e985e9c514610624578063f2fde38b14610661578063feb4db1f1461068a576101c2565b806395d89b411461053f578063a22cb4651461056a578063b88d4fde14610593578063c87b56dd146105bc576101c2565b8063714c5398116100d1578063714c5398146104a9578063715018a6146104d457806383ab6b32146104eb5780638da5cb5b14610514576101c2565b806355f804b3146104065780636352211e1461042f57806370a082311461046c576101c2565b806323b872dd116101645780633a5ebb271161013e5780633a5ebb27146103725780633ccfd60b1461039d5780633fd17366146103b457806342842e0e146103dd576101c2565b806323b872dd146102f35780632847ae821461031c5780632c2c852f14610347576101c2565b8063095ea7b3116101a0578063095ea7b31461026c5780630e176e02146102955780631249c58b146102c05780631d2e5a3a146102ca576101c2565b806301ffc9a7146101c757806306fdde0314610204578063081812fc1461022f575b600080fd5b3480156101d357600080fd5b506101ee60048036038101906101e991906125cd565b6106b5565b6040516101fb9190612b58565b60405180910390f35b34801561021057600080fd5b50610219610797565b6040516102269190612b73565b60405180910390f35b34801561023b57600080fd5b5061025660048036038101906102519190612660565b610829565b6040516102639190612af1565b60405180910390f35b34801561027857600080fd5b50610293600480360381019061028e9190612568565b6108ae565b005b3480156102a157600080fd5b506102aa6109c6565b6040516102b79190612b73565b60405180910390f35b6102c8610a54565b005b3480156102d657600080fd5b506102f160048036038101906102ec91906125a4565b610b2a565b005b3480156102ff57600080fd5b5061031a60048036038101906103159190612462565b610bc3565b005b34801561032857600080fd5b50610331610c23565b60405161033e9190612df5565b60405180910390f35b34801561035357600080fd5b5061035c610c29565b6040516103699190612b58565b60405180910390f35b34801561037e57600080fd5b50610387610c3c565b6040516103949190612df5565b60405180910390f35b3480156103a957600080fd5b506103b2610c48565b005b3480156103c057600080fd5b506103db60048036038101906103d69190612660565b610d1a565b005b3480156103e957600080fd5b5061040460048036038101906103ff9190612462565b610da0565b005b34801561041257600080fd5b5061042d6004803603810190610428919061261f565b610dc0565b005b34801561043b57600080fd5b5061045660048036038101906104519190612660565b610e56565b6040516104639190612af1565b60405180910390f35b34801561047857600080fd5b50610493600480360381019061048e91906123fd565b610f08565b6040516104a09190612df5565b60405180910390f35b3480156104b557600080fd5b506104be610fc0565b6040516104cb9190612b73565b60405180910390f35b3480156104e057600080fd5b506104e9611052565b005b3480156104f757600080fd5b50610512600480360381019061050d9190612660565b6110da565b005b34801561052057600080fd5b506105296111ac565b6040516105369190612af1565b60405180910390f35b34801561054b57600080fd5b506105546111d6565b6040516105619190612b73565b60405180910390f35b34801561057657600080fd5b50610591600480360381019061058c919061252c565b611268565b005b34801561059f57600080fd5b506105ba60048036038101906105b591906124b1565b61127e565b005b3480156105c857600080fd5b506105e360048036038101906105de9190612660565b6112e0565b6040516105f09190612b73565b60405180910390f35b34801561060557600080fd5b5061060e61135c565b60405161061b9190612df5565b60405180910390f35b34801561063057600080fd5b5061064b60048036038101906106469190612426565b611362565b6040516106589190612b58565b60405180910390f35b34801561066d57600080fd5b50610688600480360381019061068391906123fd565b6113f6565b005b34801561069657600080fd5b5061069f6114ee565b6040516106ac9190612df5565b60405180910390f35b60007f80ac58cd000000000000000000000000000000000000000000000000000000007bffffffffffffffffffffffffffffffffffffffffffffffffffffffff1916827bffffffffffffffffffffffffffffffffffffffffffffffffffffffff1916148061078057507f5b5e139f000000000000000000000000000000000000000000000000000000007bffffffffffffffffffffffffffffffffffffffffffffffffffffffff1916827bffffffffffffffffffffffffffffffffffffffffffffffffffffffff1916145b80610790575061078f826114fa565b5b9050919050565b6060600080546107a690613060565b80601f01602080910402602001604051908101604052809291908181526020018280546107d290613060565b801561081f5780601f106107f45761010080835404028352916020019161081f565b820191906000526020600020905b81548152906001019060200180831161080257829003601f168201915b5050505050905090565b600061083482611564565b610873576040517f08c379a000000000000000000000000000000000000000000000000000000000815260040161086a90612d15565b60405180910390fd5b6004600083815260200190815260200160002060009054906101000a900473ffffffffffffffffffffffffffffffffffffffff169050919050565b60006108b982610e56565b90508073ffffffffffffffffffffffffffffffffffffffff168373ffffffffffffffffffffffffffffffffffffffff16141561092a576040517f08c379a000000000000000000000000000000000000000000000000000000000815260040161092190612d75565b60405180910390fd5b8073ffffffffffffffffffffffffffffffffffffffff166109496115d0565b73ffffffffffffffffffffffffffffffffffffffff1614806109785750610977816109726115d0565b611362565b5b6109b7576040517f08c379a00000000000000000000000000000000000000000000000000000000081526004016109ae90612c55565b60405180910390fd5b6109c183836115d8565b505050565b600a80546109d390613060565b80601f01602080910402602001604051908101604052809291908181526020018280546109ff90613060565b8015610a4c5780601f10610a2157610100808354040283529160200191610a4c565b820191906000526020600020905b815481529060010190602001808311610a2f57829003601f168201915b505050505081565b60026007541415610a9a576040517f08c379a0000000000000000000000000000000000000000000000000000000008152600401610a9190612db5565b60405180910390fd5b6002600781905550600d546001610ab16008611691565b610abb9190612eef565b1115610afc576040517f08c379a0000000000000000000000000000000000000000000000000000000008152600401610af390612dd5565b60405180910390fd5b610b06600861169f565b610b20610b116115d0565b610b1b6008611691565b6116b5565b6001600781905550565b610b326115d0565b73ffffffffffffffffffffffffffffffffffffffff16610b506111ac565b73ffffffffffffffffffffffffffffffffffffffff1614610ba6576040517f08c379a0000000000000000000000000000000000000000000000000000000008152600401610b9d90612d35565b60405180910390fd5b80600b60006101000a81548160ff02191690831515021790555050565b610bd4610bce6115d0565b826116d3565b610c13576040517f08c379a0000000000000000000000000000000000000000000000000000000008152600401610c0a90612d95565b60405180910390fd5b610c1e8383836117b1565b505050565b600c5481565b600b60009054906101000a900460ff1681565b60088060000154905081565b610c506115d0565b73ffffffffffffffffffffffffffffffffffffffff16610c6e6111ac565b73ffffffffffffffffffffffffffffffffffffffff1614610cc4576040517f08c379a0000000000000000000000000000000000000000000000000000000008152600401610cbb90612d35565b60405180910390fd5b6000479050610cd16115d0565b73ffffffffffffffffffffffffffffffffffffffff166108fc829081150290604051600060405180830381858888f19350505050158015610d16573d6000803e3d6000fd5b5050565b610d226115d0565b73ffffffffffffffffffffffffffffffffffffffff16610d406111ac565b73ffffffffffffffffffffffffffffffffffffffff1614610d96576040517f08c379a0000000000000000000000000000000000000000000000000000000008152600401610d8d90612d35565b60405180910390fd5b80600c8190555050565b610dbb8383836040518060200160405280600081525061127e565b505050565b610dc86115d0565b73ffffffffffffffffffffffffffffffffffffffff16610de66111ac565b73ffffffffffffffffffffffffffffffffffffffff1614610e3c576040517f08c379a0000000000000000000000000000000000000000000000000000000008152600401610e3390612d35565b60405180910390fd5b80600a9080519060200190610e52929190612221565b5050565b6000806002600084815260200190815260200160002060009054906101000a900473ffffffffffffffffffffffffffffffffffffffff169050600073ffffffffffffffffffffffffffffffffffffffff168173ffffffffffffffffffffffffffffffffffffffff161415610eff576040517f08c379a0000000000000000000000000000000000000000000000000000000008152600401610ef690612cb5565b60405180910390fd5b80915050919050565b60008073ffffffffffffffffffffffffffffffffffffffff168273ffffffffffffffffffffffffffffffffffffffff161415610f79576040517f08c379a0000000000000000000000000000000000000000000000000000000008152600401610f7090612c95565b60405180910390fd5b600360008373ffffffffffffffffffffffffffffffffffffffff1673ffffffffffffffffffffffffffffffffffffffff168152602001908152602001600020549050919050565b6060600a8054610fcf90613060565b80601f0160208091040260200160405190810160405280929190818152602001828054610ffb90613060565b80156110485780601f1061101d57610100808354040283529160200191611048565b820191906000526020600020905b81548152906001019060200180831161102b57829003601f168201915b5050505050905090565b61105a6115d0565b73ffffffffffffffffffffffffffffffffffffffff166110786111ac565b73ffffffffffffffffffffffffffffffffffffffff16146110ce576040517f08c379a00000000000000000000000000000000000000000000000000000000081526004016110c590612d35565b60405180910390fd5b6110d86000611a0d565b565b6110e26115d0565b73ffffffffffffffffffffffffffffffffffffffff166111006111ac565b73ffffffffffffffffffffffffffffffffffffffff1614611156576040517f08c379a000000000000000000000000000000000000000000000000000000000815260040161114d90612d35565b60405180910390fd5b6111606008611691565b8110156111a2576040517f08c379a000000000000000000000000000000000000000000000000000000000815260040161119990612cd5565b60405180910390fd5b80600d8190555050565b6000600660009054906101000a900473ffffffffffffffffffffffffffffffffffffffff16905090565b6060600180546111e590613060565b80601f016020809104026020016040519081016040528092919081815260200182805461121190613060565b801561125e5780601f106112335761010080835404028352916020019161125e565b820191906000526020600020905b81548152906001019060200180831161124157829003601f168201915b5050505050905090565b61127a6112736115d0565b8383611ad3565b5050565b61128f6112896115d0565b836116d3565b6112ce576040517f08c379a00000000000000000000000000000000000000000000000000000000081526004016112c590612d95565b60405180910390fd5b6112da84848484611c40565b50505050565b60606112eb82611564565b61132a576040517f08c379a000000000000000000000000000000000000000000000000000000000815260040161132190612c75565b60405180910390fd5b600a61133583611c9c565b604051602001611346929190612ab7565b6040516020818303038152906040529050919050565b600d5481565b6000600560008473ffffffffffffffffffffffffffffffffffffffff1673ffffffffffffffffffffffffffffffffffffffff16815260200190815260200160002060008373ffffffffffffffffffffffffffffffffffffffff1673ffffffffffffffffffffffffffffffffffffffff16815260200190815260200160002060009054906101000a900460ff16905092915050565b6113fe6115d0565b73ffffffffffffffffffffffffffffffffffffffff1661141c6111ac565b73ffffffffffffffffffffffffffffffffffffffff1614611472576040517f08c379a000000000000000000000000000000000000000000000000000000000815260040161146990612d35565b60405180910390fd5b600073ffffffffffffffffffffffffffffffffffffffff168173ffffffffffffffffffffffffffffffffffffffff1614156114e2576040517f08c379a00000000000000000000000000000000000000000000000000000000081526004016114d990612bb5565b60405180910390fd5b6114eb81611a0d565b50565b60098060000154905081565b60007f01ffc9a7000000000000000000000000000000000000000000000000000000007bffffffffffffffffffffffffffffffffffffffffffffffffffffffff1916827bffffffffffffffffffffffffffffffffffffffffffffffffffffffff1916149050919050565b60008073ffffffffffffffffffffffffffffffffffffffff166002600084815260200190815260200160002060009054906101000a900473ffffffffffffffffffffffffffffffffffffffff1673ffffffffffffffffffffffffffffffffffffffff1614159050919050565b600033905090565b816004600083815260200190815260200160002060006101000a81548173ffffffffffffffffffffffffffffffffffffffff021916908373ffffffffffffffffffffffffffffffffffffffff160217905550808273ffffffffffffffffffffffffffffffffffffffff1661164b83610e56565b73ffffffffffffffffffffffffffffffffffffffff167f8c5be1e5ebec7d5bd14f71427d1e84f3dd0314c0f7b2291e5b200ac8c7c3b92560405160405180910390a45050565b600081600001549050919050565b6001816000016000828254019250508190555050565b6116cf828260405180602001604052806000815250611e49565b5050565b60006116de82611564565b61171d576040517f08c379a000000000000000000000000000000000000000000000000000000000815260040161171490612c35565b60405180910390fd5b600061172883610e56565b90508073ffffffffffffffffffffffffffffffffffffffff168473ffffffffffffffffffffffffffffffffffffffff16148061179757508373ffffffffffffffffffffffffffffffffffffffff1661177f84610829565b73ffffffffffffffffffffffffffffffffffffffff16145b806117a857506117a78185611362565b5b91505092915050565b8273ffffffffffffffffffffffffffffffffffffffff166117d182610e56565b73ffffffffffffffffffffffffffffffffffffffff1614611827576040517f08c379a000000000000000000000000000000000000000000000000000000000815260040161181e90612d55565b60405180910390fd5b600073ffffffffffffffffffffffffffffffffffffffff168273ffffffffffffffffffffffffffffffffffffffff161415611897576040517f08c379a000000000000000000000000000000000000000000000000000000000815260040161188e90612bf5565b60405180910390fd5b6118a2838383611ea4565b6118ad6000826115d8565b6001600360008573ffffffffffffffffffffffffffffffffffffffff1673ffffffffffffffffffffffffffffffffffffffff16815260200190815260200160002060008282546118fd9190612f76565b925050819055506001600360008473ffffffffffffffffffffffffffffffffffffffff1673ffffffffffffffffffffffffffffffffffffffff16815260200190815260200160002060008282546119549190612eef565b92505081905550816002600083815260200190815260200160002060006101000a81548173ffffffffffffffffffffffffffffffffffffffff021916908373ffffffffffffffffffffffffffffffffffffffff160217905550808273ffffffffffffffffffffffffffffffffffffffff168473ffffffffffffffffffffffffffffffffffffffff167fddf252ad1be2c89b69c2b068fc378daa952ba7f163c4a11628f55a4df523b3ef60405160405180910390a4505050565b6000600660009054906101000a900473ffffffffffffffffffffffffffffffffffffffff16905081600660006101000a81548173ffffffffffffffffffffffffffffffffffffffff021916908373ffffffffffffffffffffffffffffffffffffffff1602179055508173ffffffffffffffffffffffffffffffffffffffff168173ffffffffffffffffffffffffffffffffffffffff167f8be0079c531659141344cd1fd0a4f28419497f9722a3daafe3b4186f6b6457e060405160405180910390a35050565b8173ffffffffffffffffffffffffffffffffffffffff168373ffffffffffffffffffffffffffffffffffffffff161415611b42576040517f08c379a0000000000000000000000000000000000000000000000000000000008152600401611b3990612c15565b60405180910390fd5b80600560008573ffffffffffffffffffffffffffffffffffffffff1673ffffffffffffffffffffffffffffffffffffffff16815260200190815260200160002060008473ffffffffffffffffffffffffffffffffffffffff1673ffffffffffffffffffffffffffffffffffffffff16815260200190815260200160002060006101000a81548160ff0219169083151502179055508173ffffffffffffffffffffffffffffffffffffffff168373ffffffffffffffffffffffffffffffffffffffff167f17307eab39ab6107e8899845ad3d59bd9653f200f220920489ca2b5937696c3183604051611c339190612b58565b60405180910390a3505050565b611c4b8484846117b1565b611c5784848484611ea9565b611c96576040517f08c379a0000000000000000000000000000000000000000000000000000000008152600401611c8d90612b95565b60405180910390fd5b50505050565b60606000821415611ce4576040518060400160405280600181526020017f30000000000000000000000000000000000000000000000000000000000000008152509050611e44565b600082905060005b60008214611d16578080611cff906130c3565b915050600a82611d0f9190612f45565b9150611cec565b60008167ffffffffffffffff811115611d58577f4e487b7100000000000000000000000000000000000000000000000000000000600052604160045260246000fd5b6040519080825280601f01601f191660200182016040528015611d8a5781602001600182028036833780820191505090505b5090505b60008514611e3d57600182611da39190612f76565b9150600a85611db2919061310c565b6030611dbe9190612eef565b60f81b818381518110611dfa577f4e487b7100000000000000000000000000000000000000000000000000000000600052603260045260246000fd5b60200101907effffffffffffffffffffffffffffffffffffffffffffffffffffffffffffff1916908160001a905350600a85611e369190612f45565b9450611d8e565b8093505050505b919050565b611e538383612040565b611e606000848484611ea9565b611e9f576040517f08c379a0000000000000000000000000000000000000000000000000000000008152600401611e9690612b95565b60405180910390fd5b505050565b505050565b6000611eca8473ffffffffffffffffffffffffffffffffffffffff1661220e565b15612033578373ffffffffffffffffffffffffffffffffffffffff1663150b7a02611ef36115d0565b8786866040518563ffffffff1660e01b8152600401611f159493929190612b0c565b602060405180830381600087803b158015611f2f57600080fd5b505af1925050508015611f6057506040513d601f19601f82011682018060405250810190611f5d91906125f6565b60015b611fe3573d8060008114611f90576040519150601f19603f3d011682016040523d82523d6000602084013e611f95565b606091505b50600081511415611fdb576040517f08c379a0000000000000000000000000000000000000000000000000000000008152600401611fd290612b95565b60405180910390fd5b805181602001fd5b63150b7a0260e01b7bffffffffffffffffffffffffffffffffffffffffffffffffffffffff1916817bffffffffffffffffffffffffffffffffffffffffffffffffffffffff191614915050612038565b600190505b949350505050565b600073ffffffffffffffffffffffffffffffffffffffff168273ffffffffffffffffffffffffffffffffffffffff1614156120b0576040517f08c379a00000000000000000000000000000000000000000000000000000000081526004016120a790612cf5565b60405180910390fd5b6120b981611564565b156120f9576040517f08c379a00000000000000000000000000000000000000000000000000000000081526004016120f090612bd5565b60405180910390fd5b61210560008383611ea4565b6001600360008473ffffffffffffffffffffffffffffffffffffffff1673ffffffffffffffffffffffffffffffffffffffff16815260200190815260200160002060008282546121559190612eef565b92505081905550816002600083815260200190815260200160002060006101000a81548173ffffffffffffffffffffffffffffffffffffffff021916908373ffffffffffffffffffffffffffffffffffffffff160217905550808273ffffffffffffffffffffffffffffffffffffffff16600073ffffffffffffffffffffffffffffffffffffffff167fddf252ad1be2c89b69c2b068fc378daa952ba7f163c4a11628f55a4df523b3ef60405160405180910390a45050565b600080823b905060008111915050919050565b82805461222d90613060565b90600052602060002090601f01602090048101928261224f5760008555612296565b82601f1061226857805160ff1916838001178555612296565b82800160010185558215612296579182015b8281111561229557825182559160200191906001019061227a565b5b5090506122a391906122a7565b5090565b5b808211156122c05760008160009055506001016122a8565b5090565b60006122d76122d284612e35565b612e10565b9050828152602081018484840111156122ef57600080fd5b6122fa84828561301e565b509392505050565b600061231561231084612e66565b612e10565b90508281526020810184848401111561232d57600080fd5b61233884828561301e565b509392505050565b60008135905061234f81613755565b92915050565b6000813590506123648161376c565b92915050565b60008135905061237981613783565b92915050565b60008151905061238e81613783565b92915050565b600082601f8301126123a557600080fd5b81356123b58482602086016122c4565b91505092915050565b600082601f8301126123cf57600080fd5b81356123df848260208601612302565b91505092915050565b6000813590506123f78161379a565b92915050565b60006020828403121561240f57600080fd5b600061241d84828501612340565b91505092915050565b6000806040838503121561243957600080fd5b600061244785828601612340565b925050602061245885828601612340565b9150509250929050565b60008060006060848603121561247757600080fd5b600061248586828701612340565b935050602061249686828701612340565b92505060406124a7868287016123e8565b9150509250925092565b600080600080608085870312156124c757600080fd5b60006124d587828801612340565b94505060206124e687828801612340565b93505060406124f7878288016123e8565b925050606085013567ffffffffffffffff81111561251457600080fd5b61252087828801612394565b91505092959194509250565b6000806040838503121561253f57600080fd5b600061254d85828601612340565b925050602061255e85828601612355565b9150509250929050565b6000806040838503121561257b57600080fd5b600061258985828601612340565b925050602061259a858286016123e8565b9150509250929050565b6000602082840312156125b657600080fd5b60006125c484828501612355565b91505092915050565b6000602082840312156125df57600080fd5b60006125ed8482850161236a565b91505092915050565b60006020828403121561260857600080fd5b60006126168482850161237f565b91505092915050565b60006020828403121561263157600080fd5b600082013567ffffffffffffffff81111561264b57600080fd5b612657848285016123be565b91505092915050565b60006020828403121561267257600080fd5b6000612680848285016123e8565b91505092915050565b61269281612faa565b82525050565b6126a181612fbc565b82525050565b60006126b282612eac565b6126bc8185612ec2565b93506126cc81856020860161302d565b6126d5816131f9565b840191505092915050565b60006126eb82612eb7565b6126f58185612ed3565b935061270581856020860161302d565b61270e816131f9565b840191505092915050565b600061272482612eb7565b61272e8185612ee4565b935061273e81856020860161302d565b80840191505092915050565b6000815461275781613060565b6127618186612ee4565b9450600182166000811461277c576001811461278d576127c0565b60ff198316865281860193506127c0565b61279685612e97565b60005b838110156127b857815481890152600182019150602081019050612799565b838801955050505b50505092915050565b60006127d6603283612ed3565b91506127e18261320a565b604082019050919050565b60006127f9602683612ed3565b915061280482613259565b604082019050919050565b600061281c601c83612ed3565b9150612827826132a8565b602082019050919050565b600061283f602483612ed3565b915061284a826132d1565b604082019050919050565b6000612862601983612ed3565b915061286d82613320565b602082019050919050565b6000612885602c83612ed3565b915061289082613349565b604082019050919050565b60006128a8603883612ed3565b91506128b382613398565b604082019050919050565b60006128cb601183612ed3565b91506128d6826133e7565b602082019050919050565b60006128ee602a83612ed3565b91506128f982613410565b604082019050919050565b6000612911602983612ed3565b915061291c8261345f565b604082019050919050565b6000612934602783612ed3565b915061293f826134ae565b604082019050919050565b6000612957602083612ed3565b9150612962826134fd565b602082019050919050565b600061297a602c83612ed3565b915061298582613526565b604082019050919050565b600061299d600583612ee4565b91506129a882613575565b600582019050919050565b60006129c0602083612ed3565b91506129cb8261359e565b602082019050919050565b60006129e3602983612ed3565b91506129ee826135c7565b604082019050919050565b6000612a06602183612ed3565b9150612a1182613616565b604082019050919050565b6000612a29603183612ed3565b9150612a3482613665565b604082019050919050565b6000612a4c601f83612ed3565b9150612a57826136b4565b602082019050919050565b6000612a6f602383612ed3565b9150612a7a826136dd565b604082019050919050565b6000612a92600183612ee4565b9150612a9d8261372c565b600182019050919050565b612ab181613014565b82525050565b6000612ac3828561274a565b9150612ace82612a85565b9150612ada8284612719565b9150612ae582612990565b91508190509392505050565b6000602082019050612b066000830184612689565b92915050565b6000608082019050612b216000830187612689565b612b2e6020830186612689565b612b3b6040830185612aa8565b8181036060830152612b4d81846126a7565b905095945050505050565b6000602082019050612b6d6000830184612698565b92915050565b60006020820190508181036000830152612b8d81846126e0565b905092915050565b60006020820190508181036000830152612bae816127c9565b9050919050565b60006020820190508181036000830152612bce816127ec565b9050919050565b60006020820190508181036000830152612bee8161280f565b9050919050565b60006020820190508181036000830152612c0e81612832565b9050919050565b60006020820190508181036000830152612c2e81612855565b9050919050565b60006020820190508181036000830152612c4e81612878565b9050919050565b60006020820190508181036000830152612c6e8161289b565b9050919050565b60006020820190508181036000830152612c8e816128be565b9050919050565b60006020820190508181036000830152612cae816128e1565b9050919050565b60006020820190508181036000830152612cce81612904565b9050919050565b60006020820190508181036000830152612cee81612927565b9050919050565b60006020820190508181036000830152612d0e8161294a565b9050919050565b60006020820190508181036000830152612d2e8161296d565b9050919050565b60006020820190508181036000830152612d4e816129b3565b9050919050565b60006020820190508181036000830152612d6e816129d6565b9050919050565b60006020820190508181036000830152612d8e816129f9565b9050919050565b60006020820190508181036000830152612dae81612a1c565b9050919050565b60006020820190508181036000830152612dce81612a3f565b9050919050565b60006020820190508181036000830152612dee81612a62565b9050919050565b6000602082019050612e0a6000830184612aa8565b92915050565b6000612e1a612e2b565b9050612e268282613092565b919050565b6000604051905090565b600067ffffffffffffffff821115612e5057612e4f6131ca565b5b612e59826131f9565b9050602081019050919050565b600067ffffffffffffffff821115612e8157612e806131ca565b5b612e8a826131f9565b9050602081019050919050565b60008190508160005260206000209050919050565b600081519050919050565b600081519050919050565b600082825260208201905092915050565b600082825260208201905092915050565b600081905092915050565b6000612efa82613014565b9150612f0583613014565b9250827fffffffffffffffffffffffffffffffffffffffffffffffffffffffffffffffff03821115612f3a57612f3961313d565b5b828201905092915050565b6000612f5082613014565b9150612f5b83613014565b925082612f6b57612f6a61316c565b5b828204905092915050565b6000612f8182613014565b9150612f8c83613014565b925082821015612f9f57612f9e61313d565b5b828203905092915050565b6000612fb582612ff4565b9050919050565b60008115159050919050565b60007fffffffff0000000000000000000000000000000000000000000000000000000082169050919050565b600073ffffffffffffffffffffffffffffffffffffffff82169050919050565b6000819050919050565b82818337600083830152505050565b60005b8381101561304b578082015181840152602081019050613030565b8381111561305a576000848401525b50505050565b6000600282049050600182168061307857607f821691505b6020821081141561308c5761308b61319b565b5b50919050565b61309b826131f9565b810181811067ffffffffffffffff821117156130ba576130b96131ca565b5b80604052505050565b60006130ce82613014565b91507fffffffffffffffffffffffffffffffffffffffffffffffffffffffffffffffff8214156131015761310061313d565b5b600182019050919050565b600061311782613014565b915061312283613014565b9250826131325761313161316c565b5b828206905092915050565b7f4e487b7100000000000000000000000000000000000000000000000000000000600052601160045260246000fd5b7f4e487b7100000000000000000000000000000000000000000000000000000000600052601260045260246000fd5b7f4e487b7100000000000000000000000000000000000000000000000000000000600052602260045260246000fd5b7f4e487b7100000000000000000000000000000000000000000000000000000000600052604160045260246000fd5b6000601f19601f8301169050919050565b7f4552433732313a207472616e7366657220746f206e6f6e20455243373231526560008201527f63656976657220696d706c656d656e7465720000000000000000000000000000602082015250565b7f4f776e61626c653a206e6577206f776e657220697320746865207a65726f206160008201527f6464726573730000000000000000000000000000000000000000000000000000602082015250565b7f4552433732313a20746f6b656e20616c7265616479206d696e74656400000000600082015250565b7f4552433732313a207472616e7366657220746f20746865207a65726f2061646460008201527f7265737300000000000000000000000000000000000000000000000000000000602082015250565b7f4552433732313a20617070726f766520746f2063616c6c657200000000000000600082015250565b7f4552433732313a206f70657261746f7220717565727920666f72206e6f6e657860008201527f697374656e7420746f6b656e0000000000000000000000000000000000000000602082015250565b7f4552433732313a20617070726f76652063616c6c6572206973206e6f74206f7760008201527f6e6572206e6f7220617070726f76656420666f7220616c6c0000000000000000602082015250565b7f4e6f6e6578697374656e7420746f6b656e000000000000000000000000000000600082015250565b7f4552433732313a2062616c616e636520717565727920666f7220746865207a6560008201527f726f206164647265737300000000000000000000000000000000000000000000602082015250565b7f4552433732313a206f776e657220717565727920666f72206e6f6e657869737460008201527f656e7420746f6b656e0000000000000000000000000000000000000000000000602082015250565b7f4275726e696e6720697320746865206f6e6c792077617920746f20646573747260008201527f6f79204e46547300000000000000000000000000000000000000000000000000602082015250565b7f4552433732313a206d696e7420746f20746865207a65726f2061646472657373600082015250565b7f4552433732313a20617070726f76656420717565727920666f72206e6f6e657860008201527f697374656e7420746f6b656e0000000000000000000000000000000000000000602082015250565b7f2e6a736f6e000000000000000000000000000000000000000000000000000000600082015250565b7f4f776e61626c653a2063616c6c6572206973206e6f7420746865206f776e6572600082015250565b7f4552433732313a207472616e73666572206f6620746f6b656e2074686174206960008201527f73206e6f74206f776e0000000000000000000000000000000000000000000000602082015250565b7f4552433732313a20617070726f76616c20746f2063757272656e74206f776e6560008201527f7200000000000000000000000000000000000000000000000000000000000000602082015250565b7f4552433732313a207472616e736665722063616c6c6572206973206e6f74206f60008201527f776e6572206e6f7220617070726f766564000000000000000000000000000000602082015250565b7f5265656e7472616e637947756172643a207265656e7472616e742063616c6c00600082015250565b7f4e6f7420656e6f756768207061737365732072656d61696e696e6720746f206d60008201527f696e740000000000000000000000000000000000000000000000000000000000602082015250565b7f2f00000000000000000000000000000000000000000000000000000000000000600082015250565b61375e81612faa565b811461376957600080fd5b50565b61377581612fbc565b811461378057600080fd5b50565b61378c81612fc8565b811461379757600080fd5b50565b6137a381613014565b81146137ae57600080fd5b5056fea264697066735822122060b64bb9baba709e0654e117cea16077d961b2a5c1a77b15db2d7b12605ec5af64736f6c63430008040033697066733a2f2f626166796265696478636c72783637623677327533787a727779766b72616c756136336c717a7a766266337565757369367a36636b61336a6e3579",
  "linkReferences": {},
  "deployedLinkReferences": {}
}