{
  "_format": "hh-sol-artifact-1",
  "contractName": "WhereIs22",
  "sourceName": "contracts/MichaelRainey.sol",
  "abi": [
    {
      "inputs": [],
      "stateMutability": "nonpayable",
      "type": "constructor"
    },
    {
      "inputs": [],
      "name": "ApprovalCallerNotOwnerNorApproved",
      "type": "error"
    },
    {
      "inputs": [],
      "name": "ApprovalQueryForNonexistentToken",
      "type": "error"
    },
    {
      "inputs": [],
      "name": "ApprovalToCurrentOwner",
      "type": "error"
    },
    {
      "inputs": [],
      "name": "ApproveToCaller",
      "type": "error"
    },
    {
      "inputs": [],
      "name": "BalanceQueryForZeroAddress",
      "type": "error"
    },
    {
      "inputs": [],
      "name": "MintToZeroAddress",
      "type": "error"
    },
    {
      "inputs": [],
      "name": "MintZeroQuantity",
      "type": "error"
    },
    {
      "inputs": [],
      "name": "OwnerQueryForNonexistentToken",
      "type": "error"
    },
    {
      "inputs": [],
      "name": "TransferCallerNotOwnerNorApproved",
      "type": "error"
    },
    {
      "inputs": [],
      "name": "TransferFromIncorrectOwner",
      "type": "error"
    },
    {
      "inputs": [],
      "name": "TransferToNonERC721ReceiverImplementer",
      "type": "error"
    },
    {
      "inputs": [],
      "name": "TransferToZeroAddress",
      "type": "error"
    },
    {
      "inputs": [],
      "name": "URIQueryForNonexistentToken",
      "type": "error"
    },
    {
      "anonymous": false,
      "inputs": [
        {
          "indexed": true,
          "internalType": "address",
          "name": "owner",
          "type": "address"
        },
        {
          "indexed": true,
          "internalType": "address",
          "name": "approved",
          "type": "address"
        },
        {
          "indexed": true,
          "internalType": "uint256",
          "name": "tokenId",
          "type": "uint256"
        }
      ],
      "name": "Approval",
      "type": "event"
    },
    {
      "anonymous": false,
      "inputs": [
        {
          "indexed": true,
          "internalType": "address",
          "name": "owner",
          "type": "address"
        },
        {
          "indexed": true,
          "internalType": "address",
          "name": "operator",
          "type": "address"
        },
        {
          "indexed": false,
          "internalType": "bool",
          "name": "approved",
          "type": "bool"
        }
      ],
      "name": "ApprovalForAll",
      "type": "event"
    },
    {
      "anonymous": false,
      "inputs": [
        {
          "indexed": true,
          "internalType": "address",
          "name": "previousOwner",
          "type": "address"
        },
        {
          "indexed": true,
          "internalType": "address",
          "name": "newOwner",
          "type": "address"
        }
      ],
      "name": "OwnershipTransferred",
      "type": "event"
    },
    {
      "anonymous": false,
      "inputs": [
        {
          "indexed": true,
          "internalType": "address",
          "name": "from",
          "type": "address"
        },
        {
          "indexed": true,
          "internalType": "address",
          "name": "to",
          "type": "address"
        },
        {
          "indexed": true,
          "internalType": "uint256",
          "name": "tokenId",
          "type": "uint256"
        }
      ],
      "name": "Transfer",
      "type": "event"
    },
    {
      "inputs": [],
      "name": "_maxMints",
      "outputs": [
        {
          "internalType": "uint256",
          "name": "",
          "type": "uint256"
        }
      ],
      "stateMutability": "view",
      "type": "function"
    },
    {
      "inputs": [],
      "name": "_maxPresaleTokens",
      "outputs": [
        {
          "internalType": "uint256",
          "name": "",
          "type": "uint256"
        }
      ],
      "stateMutability": "view",
      "type": "function"
    },
    {
      "inputs": [],
      "name": "_maxPublicTokens",
      "outputs": [
        {
          "internalType": "uint256",
          "name": "",
          "type": "uint256"
        }
      ],
      "stateMutability": "view",
      "type": "function"
    },
    {
      "inputs": [],
      "name": "_maxTokens",
      "outputs": [
        {
          "internalType": "uint256",
          "name": "",
          "type": "uint256"
        }
      ],
      "stateMutability": "view",
      "type": "function"
    },
    {
      "inputs": [],
      "name": "_mintPricePreSale",
      "outputs": [
        {
          "internalType": "uint256",
          "name": "",
          "type": "uint256"
        }
      ],
      "stateMutability": "view",
      "type": "function"
    },
    {
      "inputs": [],
      "name": "_mintPricePublic",
      "outputs": [
        {
          "internalType": "uint256",
          "name": "",
          "type": "uint256"
        }
      ],
      "stateMutability": "view",
      "type": "function"
    },
    {
      "inputs": [],
      "name": "_saleActive",
      "outputs": [
        {
          "internalType": "bool",
          "name": "",
          "type": "bool"
        }
      ],
      "stateMutability": "view",
      "type": "function"
    },
    {
      "inputs": [],
      "name": "_tokenUriBase",
      "outputs": [
        {
          "internalType": "string",
          "name": "",
          "type": "string"
        }
      ],
      "stateMutability": "view",
      "type": "function"
    },
    {
      "inputs": [
        {
          "internalType": "address",
          "name": "to",
          "type": "address"
        },
        {
          "internalType": "uint256",
          "name": "tokenId",
          "type": "uint256"
        }
      ],
      "name": "approve",
      "outputs": [],
      "stateMutability": "nonpayable",
      "type": "function"
    },
    {
      "inputs": [
        {
          "internalType": "address",
          "name": "owner",
          "type": "address"
        }
      ],
      "name": "balanceOf",
      "outputs": [
        {
          "internalType": "uint256",
          "name": "",
          "type": "uint256"
        }
      ],
      "stateMutability": "view",
      "type": "function"
    },
    {
      "inputs": [
        {
          "internalType": "uint256",
          "name": "mintPrice",
          "type": "uint256"
        }
      ],
      "name": "changeMintPrice",
      "outputs": [],
      "stateMutability": "nonpayable",
      "type": "function"
    },
    {
      "inputs": [
        {
          "internalType": "uint256",
          "name": "tokenId",
          "type": "uint256"
        }
      ],
      "name": "getApproved",
      "outputs": [
        {
          "internalType": "address",
          "name": "",
          "type": "address"
        }
      ],
      "stateMutability": "view",
      "type": "function"
    },
    {
      "inputs": [],
      "name": "getBaseURI",
      "outputs": [
        {
          "internalType": "string",
          "name": "",
          "type": "string"
        }
      ],
      "stateMutability": "view",
      "type": "function"
    },
    {
      "inputs": [
        {
          "internalType": "address",
          "name": "owner",
          "type": "address"
        },
        {
          "internalType": "address",
          "name": "operator",
          "type": "address"
        }
      ],
      "name": "isApprovedForAll",
      "outputs": [
        {
          "internalType": "bool",
          "name": "",
          "type": "bool"
        }
      ],
      "stateMutability": "view",
      "type": "function"
    },
    {
      "inputs": [],
      "name": "mint",
      "outputs": [],
      "stateMutability": "payable",
      "type": "function"
    },
    {
      "inputs": [
        {
          "internalType": "uint256",
          "name": "quantity",
          "type": "uint256"
        }
      ],
      "name": "mint",
      "outputs": [],
      "stateMutability": "payable",
      "type": "function"
    },
    {
      "inputs": [],
      "name": "name",
      "outputs": [
        {
          "internalType": "string",
          "name": "",
          "type": "string"
        }
      ],
      "stateMutability": "view",
      "type": "function"
    },
    {
      "inputs": [],
      "name": "owner",
      "outputs": [
        {
          "internalType": "address",
          "name": "",
          "type": "address"
        }
      ],
      "stateMutability": "view",
      "type": "function"
    },
    {
      "inputs": [
        {
          "internalType": "uint256",
          "name": "tokenId",
          "type": "uint256"
        }
      ],
      "name": "ownerOf",
      "outputs": [
        {
          "internalType": "address",
          "name": "",
          "type": "address"
        }
      ],
      "stateMutability": "view",
      "type": "function"
    },
    {
      "inputs": [],
      "name": "presaleMint",
      "outputs": [],
      "stateMutability": "payable",
      "type": "function"
    },
    {
      "inputs": [
        {
          "internalType": "uint256",
          "name": "quantity",
          "type": "uint256"
        }
      ],
      "name": "presaleMint",
      "outputs": [],
      "stateMutability": "payable",
      "type": "function"
    },
    {
      "inputs": [],
      "name": "renounceOwnership",
      "outputs": [],
      "stateMutability": "nonpayable",
      "type": "function"
    },
    {
      "inputs": [
        {
          "internalType": "address",
          "name": "from",
          "type": "address"
        },
        {
          "internalType": "address",
          "name": "to",
          "type": "address"
        },
        {
          "internalType": "uint256",
          "name": "tokenId",
          "type": "uint256"
        }
      ],
      "name": "safeTransferFrom",
      "outputs": [],
      "stateMutability": "nonpayable",
      "type": "function"
    },
    {
      "inputs": [
        {
          "internalType": "address",
          "name": "from",
          "type": "address"
        },
        {
          "internalType": "address",
          "name": "to",
          "type": "address"
        },
        {
          "internalType": "uint256",
          "name": "tokenId",
          "type": "uint256"
        },
        {
          "internalType": "bytes",
          "name": "_data",
          "type": "bytes"
        }
      ],
      "name": "safeTransferFrom",
      "outputs": [],
      "stateMutability": "nonpayable",
      "type": "function"
    },
    {
      "inputs": [
        {
          "internalType": "address",
          "name": "operator",
          "type": "address"
        },
        {
          "internalType": "bool",
          "name": "approved",
          "type": "bool"
        }
      ],
      "name": "setApprovalForAll",
      "outputs": [],
      "stateMutability": "nonpayable",
      "type": "function"
    },
    {
      "inputs": [
        {
          "internalType": "string",
          "name": "baseURI",
          "type": "string"
        }
      ],
      "name": "setBaseURI",
      "outputs": [],
      "stateMutability": "nonpayable",
      "type": "function"
    },
    {
      "inputs": [
        {
          "internalType": "bool",
          "name": "preSaleActive",
          "type": "bool"
        }
      ],
      "name": "setPreSale",
      "outputs": [],
      "stateMutability": "nonpayable",
      "type": "function"
    },
    {
      "inputs": [
        {
          "internalType": "bool",
          "name": "saleActive",
          "type": "bool"
        }
      ],
      "name": "setSale",
      "outputs": [],
      "stateMutability": "nonpayable",
      "type": "function"
    },
    {
      "inputs": [
        {
          "internalType": "uint256",
          "name": "newTotalTokens",
          "type": "uint256"
        }
      ],
      "name": "setTotalTokens",
      "outputs": [],
      "stateMutability": "nonpayable",
      "type": "function"
    },
    {
      "inputs": [
        {
          "internalType": "bytes4",
          "name": "interfaceId",
          "type": "bytes4"
        }
      ],
      "name": "supportsInterface",
      "outputs": [
        {
          "internalType": "bool",
          "name": "",
          "type": "bool"
        }
      ],
      "stateMutability": "view",
      "type": "function"
    },
    {
      "inputs": [],
      "name": "symbol",
      "outputs": [
        {
          "internalType": "string",
          "name": "",
          "type": "string"
        }
      ],
      "stateMutability": "view",
      "type": "function"
    },
    {
      "inputs": [
        {
          "internalType": "address",
          "name": "a",
          "type": "address"
        },
        {
          "internalType": "bool",
          "name": "b",
          "type": "bool"
        }
      ],
      "name": "toggleFreeMint",
      "outputs": [],
      "stateMutability": "nonpayable",
      "type": "function"
    },
    {
      "inputs": [
        {
          "internalType": "uint256",
          "name": "tokenId",
          "type": "uint256"
        }
      ],
      "name": "tokenURI",
      "outputs": [
        {
          "internalType": "string",
          "name": "",
          "type": "string"
        }
      ],
      "stateMutability": "view",
      "type": "function"
    },
    {
      "inputs": [],
      "name": "totalSupply",
      "outputs": [
        {
          "internalType": "uint256",
          "name": "",
          "type": "uint256"
        }
      ],
      "stateMutability": "view",
      "type": "function"
    },
    {
      "inputs": [
        {
          "internalType": "address",
          "name": "from",
          "type": "address"
        },
        {
          "internalType": "address",
          "name": "to",
          "type": "address"
        },
        {
          "internalType": "uint256",
          "name": "tokenId",
          "type": "uint256"
        }
      ],
      "name": "transferFrom",
      "outputs": [],
      "stateMutability": "nonpayable",
      "type": "function"
    },
    {
      "inputs": [
        {
          "internalType": "address",
          "name": "newOwner",
          "type": "address"
        }
      ],
      "name": "transferOwnership",
      "outputs": [],
      "stateMutability": "nonpayable",
      "type": "function"
    },
    {
      "inputs": [],
      "name": "withdraw",
      "outputs": [],
      "stateMutability": "nonpayable",
      "type": "function"
    }
  ],
  "bytecode": "0x6080604052612710600b55611e62600c556108ae600d556703782dace9d90000600e556706f05b59d3b20000600f55600a6010553480156200004057600080fd5b506040518060400160405280600a81526020017f7768657265697332323f000000000000000000000000000000000000000000008152506040518060400160405280600381526020017f32323f00000000000000000000000000000000000000000000000000000000008152508160029080519060200190620000c59291906200022e565b508060039080519060200190620000de9291906200022e565b50620000ef6200015760201b60201c565b6000819055505050620001176200010b6200016060201b60201c565b6200016860201b60201c565b600160098190555060405180608001604052806042815260200162003eac60429139600a9080519060200190620001509291906200022e565b5062000343565b60006001905090565b600033905090565b6000600860009054906101000a900473ffffffffffffffffffffffffffffffffffffffff16905081600860006101000a81548173ffffffffffffffffffffffffffffffffffffffff021916908373ffffffffffffffffffffffffffffffffffffffff1602179055508173ffffffffffffffffffffffffffffffffffffffff168173ffffffffffffffffffffffffffffffffffffffff167f8be0079c531659141344cd1fd0a4f28419497f9722a3daafe3b4186f6b6457e060405160405180910390a35050565b8280546200023c90620002de565b90600052602060002090601f016020900481019282620002605760008555620002ac565b82601f106200027b57805160ff1916838001178555620002ac565b82800160010185558215620002ac579182015b82811115620002ab5782518255916020019190600101906200028e565b5b509050620002bb9190620002bf565b5090565b5b80821115620002da576000816000905550600101620002c0565b5090565b60006002820490506001821680620002f757607f821691505b602082108114156200030e576200030d62000314565b5b50919050565b7f4e487b7100000000000000000000000000000000000000000000000000000000600052602260045260246000fd5b613b5980620003536000396000f3fe60806040526004361061021a5760003560e01c8063487c70fc11610123578063a0712d68116100ab578063c9b298f11161006f578063c9b298f11461074a578063d8dcf08714610766578063e985e9c514610791578063eb6a7231146107ce578063f2fde38b146107f95761021a565b8063a0712d6814610676578063a22cb46514610692578063b0b92263146106bb578063b88d4fde146106e4578063c87b56dd1461070d5761021a565b806370a08231116100f257806370a08231146105a1578063714c5398146105de578063715018a6146106095780638da5cb5b1461062057806395d89b411461064b5761021a565b8063487c70fc1461050657806355f804b31461053157806359533d6c1461055a5780636352211e146105645761021a565b806318160ddd116101a65780632c2c852f116101755780632c2c852f146104475780633ccfd60b146104725780633fd173661461048957806342842e0e146104b257806343df4f15146104db5761021a565b806318160ddd1461039f5780631d2e5a3a146103ca57806323b872dd146103f35780632847ae821461041c5761021a565b806309883c8d116101ed57806309883c8d146102ed5780630d95ccc9146103185780630e176e02146103415780631249c58b1461036c57806317a0f187146103765761021a565b806301ffc9a71461021f57806306fdde031461025c578063081812fc14610287578063095ea7b3146102c4575b600080fd5b34801561022b57600080fd5b5061024660048036038101906102419190612f51565b610822565b604051610253919061335b565b60405180910390f35b34801561026857600080fd5b506102716108b4565b60405161027e9190613376565b60405180910390f35b34801561029357600080fd5b506102ae60048036038101906102a99190612fe4565b610946565b6040516102bb91906132f4565b60405180910390f35b3480156102d057600080fd5b506102eb60048036038101906102e69190612eec565b6109c2565b005b3480156102f957600080fd5b50610302610b69565b60405161030f9190613498565b60405180910390f35b34801561032457600080fd5b5061033f600480360381019061033a9190612f28565b610b6f565b005b34801561034d57600080fd5b50610356610c08565b6040516103639190613376565b60405180910390f35b610374610c96565b005b34801561038257600080fd5b5061039d60048036038101906103989190612eb0565b610e55565b005b3480156103ab57600080fd5b506103b4610f2c565b6040516103c19190613498565b60405180910390f35b3480156103d657600080fd5b506103f160048036038101906103ec9190612f28565b610f43565b005b3480156103ff57600080fd5b5061041a60048036038101906104159190612de6565b610fdc565b005b34801561042857600080fd5b50610431610fec565b60405161043e9190613498565b60405180910390f35b34801561045357600080fd5b5061045c610ff2565b604051610469919061335b565b60405180910390f35b34801561047e57600080fd5b50610487611005565b005b34801561049557600080fd5b506104b060048036038101906104ab9190612fe4565b6110d7565b005b3480156104be57600080fd5b506104d960048036038101906104d49190612de6565b61115d565b005b3480156104e757600080fd5b506104f061117d565b6040516104fd9190613498565b60405180910390f35b34801561051257600080fd5b5061051b611183565b6040516105289190613498565b60405180910390f35b34801561053d57600080fd5b5061055860048036038101906105539190612fa3565b611189565b005b61056261121f565b005b34801561057057600080fd5b5061058b60048036038101906105869190612fe4565b61142e565b60405161059891906132f4565b60405180910390f35b3480156105ad57600080fd5b506105c860048036038101906105c39190612d81565b611440565b6040516105d59190613498565b60405180910390f35b3480156105ea57600080fd5b506105f36114f9565b6040516106009190613376565b60405180910390f35b34801561061557600080fd5b5061061e61158b565b005b34801561062c57600080fd5b50610635611613565b60405161064291906132f4565b60405180910390f35b34801561065757600080fd5b5061066061163d565b60405161066d9190613376565b60405180910390f35b610690600480360381019061068b9190612fe4565b6116cf565b005b34801561069e57600080fd5b506106b960048036038101906106b49190612eb0565b6118d2565b005b3480156106c757600080fd5b506106e260048036038101906106dd9190612fe4565b611a4a565b005b3480156106f057600080fd5b5061070b60048036038101906107069190612e35565b611b15565b005b34801561071957600080fd5b50610734600480360381019061072f9190612fe4565b611b88565b6040516107419190613376565b60405180910390f35b610764600480360381019061075f9190612fe4565b611c04565b005b34801561077257600080fd5b5061077b611e57565b6040516107889190613498565b60405180910390f35b34801561079d57600080fd5b506107b860048036038101906107b39190612daa565b611e5d565b6040516107c5919061335b565b60405180910390f35b3480156107da57600080fd5b506107e3611ef1565b6040516107f09190613498565b60405180910390f35b34801561080557600080fd5b50610820600480360381019061081b9190612d81565b611ef7565b005b60006301ffc9a760e01b827bffffffffffffffffffffffffffffffffffffffffffffffffffffffff1916148061087d57506380ac58cd60e01b827bffffffffffffffffffffffffffffffffffffffffffffffffffffffff1916145b806108ad5750635b5e139f60e01b827bffffffffffffffffffffffffffffffffffffffffffffffffffffffff1916145b9050919050565b6060600280546108c39061375d565b80601f01602080910402602001604051908101604052809291908181526020018280546108ef9061375d565b801561093c5780601f106109115761010080835404028352916020019161093c565b820191906000526020600020905b81548152906001019060200180831161091f57829003601f168201915b5050505050905090565b600061095182611fef565b610987576040517fcf4700e400000000000000000000000000000000000000000000000000000000815260040160405180910390fd5b6006600083815260200190815260200160002060009054906101000a900473ffffffffffffffffffffffffffffffffffffffff169050919050565b60006109cd8261204e565b90508073ffffffffffffffffffffffffffffffffffffffff168373ffffffffffffffffffffffffffffffffffffffff161415610a35576040517f943f7b8c00000000000000000000000000000000000000000000000000000000815260040160405180910390fd5b8073ffffffffffffffffffffffffffffffffffffffff16610a5461211c565b73ffffffffffffffffffffffffffffffffffffffff1614610ab757610a8081610a7b61211c565b611e5d565b610ab6576040517fcfb3b94200000000000000000000000000000000000000000000000000000000815260040160405180910390fd5b5b826006600084815260200190815260200160002060006101000a81548173ffffffffffffffffffffffffffffffffffffffff021916908373ffffffffffffffffffffffffffffffffffffffff160217905550818373ffffffffffffffffffffffffffffffffffffffff168273ffffffffffffffffffffffffffffffffffffffff167f8c5be1e5ebec7d5bd14f71427d1e84f3dd0314c0f7b2291e5b200ac8c7c3b92560405160405180910390a4505050565b60105481565b610b77612124565b73ffffffffffffffffffffffffffffffffffffffff16610b95611613565b73ffffffffffffffffffffffffffffffffffffffff1614610beb576040517f08c379a0000000000000000000000000000000000000000000000000000000008152600401610be290613438565b60405180910390fd5b80601260016101000a81548160ff02191690831515021790555050565b600a8054610c159061375d565b80601f0160208091040260200160405190810160405280929190818152602001828054610c419061375d565b8015610c8e5780601f10610c6357610100808354040283529160200191610c8e565b820191906000526020600020905b815481529060010190602001808311610c7157829003601f168201915b505050505081565b601260009054906101000a900460ff16610ce5576040517f08c379a0000000000000000000000000000000000000000000000000000000008152600401610cdc906133f8565b60405180910390fd5b600b546001610cf2610f2c565b610cfc9190613592565b1115610d3d576040517f08c379a0000000000000000000000000000000000000000000000000000000008152600401610d34906133b8565b60405180910390fd5b6001600f5460116000610d4e612124565b73ffffffffffffffffffffffffffffffffffffffff1673ffffffffffffffffffffffffffffffffffffffff16815260200190815260200160002060009054906101000a900460ff16610de9578082610da69190613619565b341015610de8576040517f08c379a0000000000000000000000000000000000000000000000000000000008152600401610ddf90613458565b60405180910390fd5b5b60026009541415610e2f576040517f08c379a0000000000000000000000000000000000000000000000000000000008152600401610e2690613478565b60405180910390fd5b6002600981905550610e49610e42612124565b600161212c565b60016009819055505050565b610e5d612124565b73ffffffffffffffffffffffffffffffffffffffff16610e7b611613565b73ffffffffffffffffffffffffffffffffffffffff1614610ed1576040517f08c379a0000000000000000000000000000000000000000000000000000000008152600401610ec890613438565b60405180910390fd5b80601160008473ffffffffffffffffffffffffffffffffffffffff1673ffffffffffffffffffffffffffffffffffffffff16815260200190815260200160002060006101000a81548160ff0219169083151502179055505050565b6000610f3661214a565b6001546000540303905090565b610f4b612124565b73ffffffffffffffffffffffffffffffffffffffff16610f69611613565b73ffffffffffffffffffffffffffffffffffffffff1614610fbf576040517f08c379a0000000000000000000000000000000000000000000000000000000008152600401610fb690613438565b60405180910390fd5b80601260006101000a81548160ff02191690831515021790555050565b610fe7838383612153565b505050565b600f5481565b601260009054906101000a900460ff1681565b61100d612124565b73ffffffffffffffffffffffffffffffffffffffff1661102b611613565b73ffffffffffffffffffffffffffffffffffffffff1614611081576040517f08c379a000000000000000000000000000000000000000000000000000000000815260040161107890613438565b60405180910390fd5b600047905061108e612124565b73ffffffffffffffffffffffffffffffffffffffff166108fc829081150290604051600060405180830381858888f193505050501580156110d3573d6000803e3d6000fd5b5050565b6110df612124565b73ffffffffffffffffffffffffffffffffffffffff166110fd611613565b73ffffffffffffffffffffffffffffffffffffffff1614611153576040517f08c379a000000000000000000000000000000000000000000000000000000000815260040161114a90613438565b60405180910390fd5b80600f8190555050565b61117883838360405180602001604052806000815250611b15565b505050565b600d5481565b600b5481565b611191612124565b73ffffffffffffffffffffffffffffffffffffffff166111af611613565b73ffffffffffffffffffffffffffffffffffffffff1614611205576040517f08c379a00000000000000000000000000000000000000000000000000000000081526004016111fc90613438565b60405180910390fd5b80600a908051906020019061121b929190612ba5565b5050565b601260019054906101000a900460ff1661126e576040517f08c379a0000000000000000000000000000000000000000000000000000000008152600401611265906133f8565b60405180910390fd5b601260009054906101000a900460ff16156112be576040517f08c379a00000000000000000000000000000000000000000000000000000000081526004016112b5906133f8565b60405180910390fd5b600d5460016112cb610f2c565b6112d59190613592565b1115611316576040517f08c379a000000000000000000000000000000000000000000000000000000000815260040161130d906133b8565b60405180910390fd5b6001600e5460116000611327612124565b73ffffffffffffffffffffffffffffffffffffffff1673ffffffffffffffffffffffffffffffffffffffff16815260200190815260200160002060009054906101000a900460ff166113c257808261137f9190613619565b3410156113c1576040517f08c379a00000000000000000000000000000000000000000000000000000000081526004016113b890613458565b60405180910390fd5b5b60026009541415611408576040517f08c379a00000000000000000000000000000000000000000000000000000000081526004016113ff90613478565b60405180910390fd5b600260098190555061142261141b612124565b600161212c565b60016009819055505050565b60006114398261204e565b9050919050565b60008073ffffffffffffffffffffffffffffffffffffffff168273ffffffffffffffffffffffffffffffffffffffff1614156114a8576040517f8f4eb60400000000000000000000000000000000000000000000000000000000815260040160405180910390fd5b67ffffffffffffffff600560008473ffffffffffffffffffffffffffffffffffffffff1673ffffffffffffffffffffffffffffffffffffffff16815260200190815260200160002054169050919050565b6060600a80546115089061375d565b80601f01602080910402602001604051908101604052809291908181526020018280546115349061375d565b80156115815780601f1061155657610100808354040283529160200191611581565b820191906000526020600020905b81548152906001019060200180831161156457829003601f168201915b5050505050905090565b611593612124565b73ffffffffffffffffffffffffffffffffffffffff166115b1611613565b73ffffffffffffffffffffffffffffffffffffffff1614611607576040517f08c379a00000000000000000000000000000000000000000000000000000000081526004016115fe90613438565b60405180910390fd5b61161160006124fd565b565b6000600860009054906101000a900473ffffffffffffffffffffffffffffffffffffffff16905090565b60606003805461164c9061375d565b80601f01602080910402602001604051908101604052809291908181526020018280546116789061375d565b80156116c55780601f1061169a576101008083540402835291602001916116c5565b820191906000526020600020905b8154815290600101906020018083116116a857829003601f168201915b5050505050905090565b601260009054906101000a900460ff1661171e576040517f08c379a0000000000000000000000000000000000000000000000000000000008152600401611715906133f8565b60405180910390fd5b600b54600161172b610f2c565b6117359190613592565b1115611776576040517f08c379a000000000000000000000000000000000000000000000000000000000815260040161176d906133b8565b60405180910390fd5b80600f5460116000611786612124565b73ffffffffffffffffffffffffffffffffffffffff1673ffffffffffffffffffffffffffffffffffffffff16815260200190815260200160002060009054906101000a900460ff166118215780826117de9190613619565b341015611820576040517f08c379a000000000000000000000000000000000000000000000000000000000815260040161181790613458565b60405180910390fd5b5b60026009541415611867576040517f08c379a000000000000000000000000000000000000000000000000000000000815260040161185e90613478565b60405180910390fd5b60026009819055506010548311156118b4576040517f08c379a00000000000000000000000000000000000000000000000000000000081526004016118ab906133b8565b60405180910390fd5b6118c56118bf612124565b8461212c565b6001600981905550505050565b6118da61211c565b73ffffffffffffffffffffffffffffffffffffffff168273ffffffffffffffffffffffffffffffffffffffff16141561193f576040517fb06307db00000000000000000000000000000000000000000000000000000000815260040160405180910390fd5b806007600061194c61211c565b73ffffffffffffffffffffffffffffffffffffffff1673ffffffffffffffffffffffffffffffffffffffff16815260200190815260200160002060008473ffffffffffffffffffffffffffffffffffffffff1673ffffffffffffffffffffffffffffffffffffffff16815260200190815260200160002060006101000a81548160ff0219169083151502179055508173ffffffffffffffffffffffffffffffffffffffff166119f961211c565b73ffffffffffffffffffffffffffffffffffffffff167f17307eab39ab6107e8899845ad3d59bd9653f200f220920489ca2b5937696c3183604051611a3e919061335b565b60405180910390a35050565b611a52612124565b73ffffffffffffffffffffffffffffffffffffffff16611a70611613565b73ffffffffffffffffffffffffffffffffffffffff1614611ac6576040517f08c379a0000000000000000000000000000000000000000000000000000000008152600401611abd90613438565b60405180910390fd5b600b54811015611b0b576040517f08c379a0000000000000000000000000000000000000000000000000000000008152600401611b02906133d8565b60405180910390fd5b80600b8190555050565b611b20848484612153565b60008373ffffffffffffffffffffffffffffffffffffffff163b14611b8257611b4b848484846125c3565b611b81576040517fd1a57ed600000000000000000000000000000000000000000000000000000000815260040160405180910390fd5b5b50505050565b6060611b9382611fef565b611bd2576040517f08c379a0000000000000000000000000000000000000000000000000000000008152600401611bc990613418565b60405180910390fd5b600a611bdd83612723565b604051602001611bee9291906132ba565b6040516020818303038152906040529050919050565b601260019054906101000a900460ff16611c53576040517f08c379a0000000000000000000000000000000000000000000000000000000008152600401611c4a906133f8565b60405180910390fd5b601260009054906101000a900460ff1615611ca3576040517f08c379a0000000000000000000000000000000000000000000000000000000008152600401611c9a906133f8565b60405180910390fd5b600d546001611cb0610f2c565b611cba9190613592565b1115611cfb576040517f08c379a0000000000000000000000000000000000000000000000000000000008152600401611cf2906133b8565b60405180910390fd5b80600e5460116000611d0b612124565b73ffffffffffffffffffffffffffffffffffffffff1673ffffffffffffffffffffffffffffffffffffffff16815260200190815260200160002060009054906101000a900460ff16611da6578082611d639190613619565b341015611da5576040517f08c379a0000000000000000000000000000000000000000000000000000000008152600401611d9c90613458565b60405180910390fd5b5b60026009541415611dec576040517f08c379a0000000000000000000000000000000000000000000000000000000008152600401611de390613478565b60405180910390fd5b6002600981905550601054831115611e39576040517f08c379a0000000000000000000000000000000000000000000000000000000008152600401611e30906133b8565b60405180910390fd5b611e4a611e44612124565b8461212c565b6001600981905550505050565b600c5481565b6000600760008473ffffffffffffffffffffffffffffffffffffffff1673ffffffffffffffffffffffffffffffffffffffff16815260200190815260200160002060008373ffffffffffffffffffffffffffffffffffffffff1673ffffffffffffffffffffffffffffffffffffffff16815260200190815260200160002060009054906101000a900460ff16905092915050565b600e5481565b611eff612124565b73ffffffffffffffffffffffffffffffffffffffff16611f1d611613565b73ffffffffffffffffffffffffffffffffffffffff1614611f73576040517f08c379a0000000000000000000000000000000000000000000000000000000008152600401611f6a90613438565b60405180910390fd5b600073ffffffffffffffffffffffffffffffffffffffff168173ffffffffffffffffffffffffffffffffffffffff161415611fe3576040517f08c379a0000000000000000000000000000000000000000000000000000000008152600401611fda90613398565b60405180910390fd5b611fec816124fd565b50565b600081611ffa61214a565b11158015612009575060005482105b8015612047575060007c0100000000000000000000000000000000000000000000000000000000600460008581526020019081526020016000205416145b9050919050565b6000808290508061205d61214a565b116120e5576000548110156120e45760006004600083815260200190815260200160002054905060007c0100000000000000000000000000000000000000000000000000000000821614156120e2575b60008114156120d85760046000836001900393508381526020019081526020016000205490506120ad565b8092505050612117565b505b5b6040517fdf2d9b4200000000000000000000000000000000000000000000000000000000815260040160405180910390fd5b919050565b600033905090565b600033905090565b6121468282604051806020016040528060008152506128d0565b5050565b60006001905090565b600061215e8261204e565b90508373ffffffffffffffffffffffffffffffffffffffff168173ffffffffffffffffffffffffffffffffffffffff16146121c5576040517fa114810000000000000000000000000000000000000000000000000000000000815260040160405180910390fd5b60008473ffffffffffffffffffffffffffffffffffffffff166121e661211c565b73ffffffffffffffffffffffffffffffffffffffff16148061221557506122148561220f61211c565b611e5d565b5b8061225a575061222361211c565b73ffffffffffffffffffffffffffffffffffffffff1661224284610946565b73ffffffffffffffffffffffffffffffffffffffff16145b905080612293576040517f59c896be00000000000000000000000000000000000000000000000000000000815260040160405180910390fd5b600073ffffffffffffffffffffffffffffffffffffffff168473ffffffffffffffffffffffffffffffffffffffff1614156122fa576040517fea553b3400000000000000000000000000000000000000000000000000000000815260040160405180910390fd5b6123078585856001612b85565b6006600084815260200190815260200160002060006101000a81549073ffffffffffffffffffffffffffffffffffffffff0219169055600560008673ffffffffffffffffffffffffffffffffffffffff1673ffffffffffffffffffffffffffffffffffffffff168152602001908152602001600020600081546001900391905081905550600560008573ffffffffffffffffffffffffffffffffffffffff1673ffffffffffffffffffffffffffffffffffffffff16815260200190815260200160002060008154600101919050819055507c020000000000000000000000000000000000000000000000000000000060a042901b61240486612b8b565b1717600460008581526020019081526020016000208190555060007c02000000000000000000000000000000000000000000000000000000008316141561248e57600060018401905060006004600083815260200190815260200160002054141561248c57600054811461248b578260046000838152602001908152602001600020819055505b5b505b828473ffffffffffffffffffffffffffffffffffffffff168673ffffffffffffffffffffffffffffffffffffffff167fddf252ad1be2c89b69c2b068fc378daa952ba7f163c4a11628f55a4df523b3ef60405160405180910390a46124f68585856001612b95565b5050505050565b6000600860009054906101000a900473ffffffffffffffffffffffffffffffffffffffff16905081600860006101000a81548173ffffffffffffffffffffffffffffffffffffffff021916908373ffffffffffffffffffffffffffffffffffffffff1602179055508173ffffffffffffffffffffffffffffffffffffffff168173ffffffffffffffffffffffffffffffffffffffff167f8be0079c531659141344cd1fd0a4f28419497f9722a3daafe3b4186f6b6457e060405160405180910390a35050565b60008373ffffffffffffffffffffffffffffffffffffffff1663150b7a026125e961211c565b8786866040518563ffffffff1660e01b815260040161260b949392919061330f565b602060405180830381600087803b15801561262557600080fd5b505af192505050801561265657506040513d601f19601f820116820180604052508101906126539190612f7a565b60015b6126d0573d8060008114612686576040519150601f19603f3d011682016040523d82523d6000602084013e61268b565b606091505b506000815114156126c8576040517fd1a57ed600000000000000000000000000000000000000000000000000000000815260040160405180910390fd5b805181602001fd5b63150b7a0260e01b7bffffffffffffffffffffffffffffffffffffffffffffffffffffffff1916817bffffffffffffffffffffffffffffffffffffffffffffffffffffffff191614915050949350505050565b6060600082141561276b576040518060400160405280600181526020017f300000000000000000000000000000000000000000000000000000000000000081525090506128cb565b600082905060005b6000821461279d578080612786906137c0565b915050600a8261279691906135e8565b9150612773565b60008167ffffffffffffffff8111156127df577f4e487b7100000000000000000000000000000000000000000000000000000000600052604160045260246000fd5b6040519080825280601f01601f1916602001820160405280156128115781602001600182028036833780820191505090505b5090505b600085146128c45760018261282a9190613673565b9150600a856128399190613809565b60306128459190613592565b60f81b818381518110612881577f4e487b7100000000000000000000000000000000000000000000000000000000600052603260045260246000fd5b60200101907effffffffffffffffffffffffffffffffffffffffffffffffffffffffffffff1916908160001a905350600a856128bd91906135e8565b9450612815565b8093505050505b919050565b600080549050600073ffffffffffffffffffffffffffffffffffffffff168473ffffffffffffffffffffffffffffffffffffffff16141561293d576040517f2e07630000000000000000000000000000000000000000000000000000000000815260040160405180910390fd5b6000831415612978576040517fb562e8dd00000000000000000000000000000000000000000000000000000000815260040160405180910390fd5b6129856000858386612b85565b600160406001901b178302600560008673ffffffffffffffffffffffffffffffffffffffff1673ffffffffffffffffffffffffffffffffffffffff1681526020019081526020016000206000828254019250508190555060e16129ea60018514612b9b565b901b60a042901b6129fa86612b8b565b1717600460008381526020019081526020016000208190555060008190506000848201905060008673ffffffffffffffffffffffffffffffffffffffff163b14612afe575b818673ffffffffffffffffffffffffffffffffffffffff16600073ffffffffffffffffffffffffffffffffffffffff167fddf252ad1be2c89b69c2b068fc378daa952ba7f163c4a11628f55a4df523b3ef60405160405180910390a4612aae60008784806001019550876125c3565b612ae4576040517fd1a57ed600000000000000000000000000000000000000000000000000000000815260040160405180910390fd5b808210612a3f578260005414612af957600080fd5b612b69565b5b818060010192508673ffffffffffffffffffffffffffffffffffffffff16600073ffffffffffffffffffffffffffffffffffffffff167fddf252ad1be2c89b69c2b068fc378daa952ba7f163c4a11628f55a4df523b3ef60405160405180910390a4808210612aff575b816000819055505050612b7f6000858386612b95565b50505050565b50505050565b6000819050919050565b50505050565b6000819050919050565b828054612bb19061375d565b90600052602060002090601f016020900481019282612bd35760008555612c1a565b82601f10612bec57805160ff1916838001178555612c1a565b82800160010185558215612c1a579182015b82811115612c19578251825591602001919060010190612bfe565b5b509050612c279190612c2b565b5090565b5b80821115612c44576000816000905550600101612c2c565b5090565b6000612c5b612c56846134d8565b6134b3565b905082815260208101848484011115612c7357600080fd5b612c7e84828561371b565b509392505050565b6000612c99612c9484613509565b6134b3565b905082815260208101848484011115612cb157600080fd5b612cbc84828561371b565b509392505050565b600081359050612cd381613ac7565b92915050565b600081359050612ce881613ade565b92915050565b600081359050612cfd81613af5565b92915050565b600081519050612d1281613af5565b92915050565b600082601f830112612d2957600080fd5b8135612d39848260208601612c48565b91505092915050565b600082601f830112612d5357600080fd5b8135612d63848260208601612c86565b91505092915050565b600081359050612d7b81613b0c565b92915050565b600060208284031215612d9357600080fd5b6000612da184828501612cc4565b91505092915050565b60008060408385031215612dbd57600080fd5b6000612dcb85828601612cc4565b9250506020612ddc85828601612cc4565b9150509250929050565b600080600060608486031215612dfb57600080fd5b6000612e0986828701612cc4565b9350506020612e1a86828701612cc4565b9250506040612e2b86828701612d6c565b9150509250925092565b60008060008060808587031215612e4b57600080fd5b6000612e5987828801612cc4565b9450506020612e6a87828801612cc4565b9350506040612e7b87828801612d6c565b925050606085013567ffffffffffffffff811115612e9857600080fd5b612ea487828801612d18565b91505092959194509250565b60008060408385031215612ec357600080fd5b6000612ed185828601612cc4565b9250506020612ee285828601612cd9565b9150509250929050565b60008060408385031215612eff57600080fd5b6000612f0d85828601612cc4565b9250506020612f1e85828601612d6c565b9150509250929050565b600060208284031215612f3a57600080fd5b6000612f4884828501612cd9565b91505092915050565b600060208284031215612f6357600080fd5b6000612f7184828501612cee565b91505092915050565b600060208284031215612f8c57600080fd5b6000612f9a84828501612d03565b91505092915050565b600060208284031215612fb557600080fd5b600082013567ffffffffffffffff811115612fcf57600080fd5b612fdb84828501612d42565b91505092915050565b600060208284031215612ff657600080fd5b600061300484828501612d6c565b91505092915050565b613016816136a7565b82525050565b613025816136b9565b82525050565b60006130368261354f565b6130408185613565565b935061305081856020860161372a565b613059816138f6565b840191505092915050565b600061306f8261355a565b6130798185613576565b935061308981856020860161372a565b613092816138f6565b840191505092915050565b60006130a88261355a565b6130b28185613587565b93506130c281856020860161372a565b80840191505092915050565b600081546130db8161375d565b6130e58186613587565b94506001821660008114613100576001811461311157613144565b60ff19831686528186019350613144565b61311a8561353a565b60005b8381101561313c5781548189015260018201915060208101905061311d565b838801955050505b50505092915050565b600061315a602683613576565b915061316582613907565b604082019050919050565b600061317d600c83613576565b915061318882613956565b602082019050919050565b60006131a0600c83613576565b91506131ab8261397f565b602082019050919050565b60006131c3600d83613576565b91506131ce826139a8565b602082019050919050565b60006131e6601183613576565b91506131f1826139d1565b602082019050919050565b6000613209600583613587565b9150613214826139fa565b600582019050919050565b600061322c602083613576565b915061323782613a23565b602082019050919050565b600061324f600d83613576565b915061325a82613a4c565b602082019050919050565b6000613272601f83613576565b915061327d82613a75565b602082019050919050565b6000613295600183613587565b91506132a082613a9e565b600182019050919050565b6132b481613711565b82525050565b60006132c682856130ce565b91506132d182613288565b91506132dd828461309d565b91506132e8826131fc565b91508190509392505050565b6000602082019050613309600083018461300d565b92915050565b6000608082019050613324600083018761300d565b613331602083018661300d565b61333e60408301856132ab565b8181036060830152613350818461302b565b905095945050505050565b6000602082019050613370600083018461301c565b92915050565b600060208201905081810360008301526133908184613064565b905092915050565b600060208201905081810360008301526133b18161314d565b9050919050565b600060208201905081810360008301526133d181613170565b9050919050565b600060208201905081810360008301526133f181613193565b9050919050565b60006020820190508181036000830152613411816131b6565b9050919050565b60006020820190508181036000830152613431816131d9565b9050919050565b600060208201905081810360008301526134518161321f565b9050919050565b6000602082019050818103600083015261347181613242565b9050919050565b6000602082019050818103600083015261349181613265565b9050919050565b60006020820190506134ad60008301846132ab565b92915050565b60006134bd6134ce565b90506134c9828261378f565b919050565b6000604051905090565b600067ffffffffffffffff8211156134f3576134f26138c7565b5b6134fc826138f6565b9050602081019050919050565b600067ffffffffffffffff821115613524576135236138c7565b5b61352d826138f6565b9050602081019050919050565b60008190508160005260206000209050919050565b600081519050919050565b600081519050919050565b600082825260208201905092915050565b600082825260208201905092915050565b600081905092915050565b600061359d82613711565b91506135a883613711565b9250827fffffffffffffffffffffffffffffffffffffffffffffffffffffffffffffffff038211156135dd576135dc61383a565b5b828201905092915050565b60006135f382613711565b91506135fe83613711565b92508261360e5761360d613869565b5b828204905092915050565b600061362482613711565b915061362f83613711565b9250817fffffffffffffffffffffffffffffffffffffffffffffffffffffffffffffffff04831182151516156136685761366761383a565b5b828202905092915050565b600061367e82613711565b915061368983613711565b92508282101561369c5761369b61383a565b5b828203905092915050565b60006136b2826136f1565b9050919050565b60008115159050919050565b60007fffffffff0000000000000000000000000000000000000000000000000000000082169050919050565b600073ffffffffffffffffffffffffffffffffffffffff82169050919050565b6000819050919050565b82818337600083830152505050565b60005b8381101561374857808201518184015260208101905061372d565b83811115613757576000848401525b50505050565b6000600282049050600182168061377557607f821691505b6020821081141561378957613788613898565b5b50919050565b613798826138f6565b810181811067ffffffffffffffff821117156137b7576137b66138c7565b5b80604052505050565b60006137cb82613711565b91507fffffffffffffffffffffffffffffffffffffffffffffffffffffffffffffffff8214156137fe576137fd61383a565b5b600182019050919050565b600061381482613711565b915061381f83613711565b92508261382f5761382e613869565b5b828206905092915050565b7f4e487b7100000000000000000000000000000000000000000000000000000000600052601160045260246000fd5b7f4e487b7100000000000000000000000000000000000000000000000000000000600052601260045260246000fd5b7f4e487b7100000000000000000000000000000000000000000000000000000000600052602260045260246000fd5b7f4e487b7100000000000000000000000000000000000000000000000000000000600052604160045260246000fd5b6000601f19601f8301169050919050565b7f4f776e61626c653a206e6577206f776e657220697320746865207a65726f206160008201527f6464726573730000000000000000000000000000000000000000000000000000602082015250565b7f4d61782065786365656465640000000000000000000000000000000000000000600082015250565b7f43616e742064657374726f790000000000000000000000000000000000000000600082015250565b7f53616c6520696e61637469766500000000000000000000000000000000000000600082015250565b7f4e6f6e6578697374656e7420746f6b656e000000000000000000000000000000600082015250565b7f2e6a736f6e000000000000000000000000000000000000000000000000000000600082015250565b7f4f776e61626c653a2063616c6c6572206973206e6f7420746865206f776e6572600082015250565b7f496e76616c696420707269636500000000000000000000000000000000000000600082015250565b7f5265656e7472616e637947756172643a207265656e7472616e742063616c6c00600082015250565b7f2f00000000000000000000000000000000000000000000000000000000000000600082015250565b613ad0816136a7565b8114613adb57600080fd5b50565b613ae7816136b9565b8114613af257600080fd5b50565b613afe816136c5565b8114613b0957600080fd5b50565b613b1581613711565b8114613b2057600080fd5b5056fea2646970667358221220973f11e127221c6a26ae7dfdd6cbb9c0b9b7d9795d08a507d8859b5a80b4ffe764736f6c63430008040033697066733a2f2f62616679626569666563737a356b3568637175786c626a76666c353273323579696b637637646536716364377933746c33626e7635326a6c626d75",
  "linkReferences": {},
  "deployedLinkReferences": {}
}